:100000000C9448010C9498130C9498130C94410F81
:100010000C94EA100C9498130C94AB0D0C94BE1035
:100020000C9498130C943A100C9466100C94921043
:100030000C9498130C9498130C9498130C94981394
:100040000C942A0B0C9498130C9498130C949813FA
:100050000C9498130C9498130C94070E0C9498130A
:100060000C940E100C94E20F0C9498130C949813AB
:100070000C9498130C94010F0C9498130C949813EF
:100080000C9498130C9498130C94630E0C9498137E
:100090000C9498130C9498130C9498130C94981334
:1000A0000C9498130C9498130C9498130C94981324
:1000B0009101A5019601AA019B01AF01A001B40124
:1000C000110362031A036203230362032C03620316
:1000D000B901DF0105022B02E902EE02F302F80288
:1000E000BE03BE03BE0335036203BE03BE03670344
:1000F000BE036B03BE03750370037E037A038203A2
:100100008703BE03BE03BE03BE03BE03BE03BE031E
:10011000BE03BE03BE03BE03BE03BE03BE033E0357
:1001200062034703620350036203590362035102EF
:1001300077029D02C302FD02020307030C03BE0304
:10014000BE03BE03BE03BE03BE03BE03BE038C03D9
:10015000910396039B03A003A503AA03AF03B40373
:10016000B903FE030304FE030F04FE032004FE0391
:1001700031040C080C080C080C080C080C080C08BE
:100180000C0842049A04F2044A0502070C071607F9
:100190002007F507520756070C080C080C080C0836
:1001A0000C089507AB077D07C407C107DD07C70724
:1001B0000C080C080C080C080C080C080C080C089F
:1001C0000C080C080C080C080C080C080C080C088F
:1001D0000C080C080C080C080C080C080C080C087F
:1001E000A205FA055206AA062A0734073E07480761
:1001F000680A6C0A700A740A780A7C0A800A840AFF
:10020000A50AB30AC10ACF0ADD0AEB0AF90A070BED
:10021000930D970D9B0D9F0D6D0D840D880D8C0D0D
:10022000A20DA20DA20DA20DA20DA20DA20DA20D56
:10023000900D3B0C4D0C3B0C4D0C4D0C3B0C3B0CFA
:10024000320C3B0C3B0C8B0C9D0C8B0C9D0C9D0CB9
:100250008B0C8B0C820C8B0C8B0C7000708C807058
:100260008C7090002780709070CE8070CE70D60019
:10027000278470D670DE8070DE70EE00278C70EE02
:1002800070F88070F870FB00279C70FB70FF800096
:1002900011241FBECFEFCDBFDFE7DEBFEAE5F2E0FE
:1002A00042E017C0B591A59135912591059107FDC3
:1002B0000CC095918591EF01F92FE82F05900D92D3
:1002C000A217B307D9F7FE0104C01D92A217B30706
:1002D000E1F7EF38F40731F70E9410080C941F1370
:0402E000F894FFCFC0
:1002E400CF93DF93823009F46AC2833031F08130D6
:1002F40009F090C68093F4708DC6E091F37021E00C
:100304002E0F2093F3708E2F90E0FC013197E93586
:10031400F10508F031C2E85AFF4F0C945313809151
:10032400ED700E94861376C68091EB700E9486134E
:1003340071C68091E9700E9486136CC68091E77043
:100344000E94861367C68091EC700E94861362C671
:100354008091EA700E9486135DC68091E8700E94C5
:10036400861358C68091E6700E94861353C685E0B2
:100374000E949D11882321F082E00E9486134AC6C0
:1003840084E00E946E12882321F084E00E94861388
:1003940041C680916004857021F080E00E9486133C
:1003A40039C68091750483FF04C083E00E948613DC
:1003B40031C681E00E9486132DC686E00E949D11FD
:1003C400882321F082E00E94861324C685E00E94DF
:1003D4006E12882321F084E00E9486131BC680914C
:1003E400600486FF04C080E00E94861313C68091D7
:1003F400760483FF04C083E00E9486130BC681E069
:100404000E94861307C687E00E949D11882321F06D
:1004140082E00E948613FEC586E00E946E12882345
:1004240021F084E00E948613F5C58091600488233E
:1004340024F480E00E948613EDC58091770483FF45
:1004440004C083E00E948613E5C581E00E94861300
:10045400E1C580E10E949D11882321F082E00E9481
:100464008613D8C587E00E946E12882321F084E0A9
:100474000E948613CFC58091A00480FF04C080E051
:100484000E948613C7C58091B00483FF04C083E033
:100494000E948613BFC581E00E948613BBC580E01D
:1004A4000E949D11882321F082E00E948613B2C528
:1004B40080E00E946E12882321F084E00E9486135B
:1004C400A9C58091600483FF04C080E00E94861364
:1004D400A1C58091730483FF04C083E00E94861346
:1004E40099C581E00E94861395C581E00E949D1103
:1004F400882321F082E00E9486138CC581E00E944B
:100504006E12882321F084E00E94861383C58091B3
:10051400600482FF04C080E00E9486137BC5809142
:10052400720483FF04C083E00E94861373C581E0D4
:100534000E9486136FC582E00E949D11882321F0DA
:1005440082E00E94861366C582E00E946E128823B0
:1005540021F084E00E9486135DC58091600481FFD0
:1005640004C080E00E94861355C58091710483FF06
:1005740004C083E00E9486134DC581E00E94861367
:1005840049C583E00E949D11882321F082E00E94E6
:10059400861340C583E00E946E12882321F084E014
:1005A4000E94861337C58091600480FF04C080E0F8
:1005B4000E9486132FC58091700483FF04C083E0DA
:1005C4000E94861327C581E00E94861323C58EB13D
:1005D40080720E9486131EC58EB180740E94861399
:1005E40019C58EB180780E94861314C586B38170B4
:1005F4000E9486130FC58EB188700E9486130AC5A7
:100604008EB184700E94861305C58EB182700E94DB
:10061400861300C58EB181700E948613FBC4C0E0AE
:10062400D0E78B850E9486138A858093F270F2C48A
:10063400C0E0D0E78D850E9486138C858093F2708C
:10064400E9C4C0E0D0E78F850E9486138E8580932D
:10065400F270E0C4C0E0D0E789A10E94861388A1AB
:100664008093F270D7C4C0E0D0E789850E948613D6
:1006740088858093F270CEC4C0E0D0E789810E945F
:10068400861388818093F270C5C4C0E0D0E78B8163
:100694000E9486138A818093F270BCC4C0E0D0E7C4
:1006A4008F850E9486138C818093F270B3C4C0E05E
:1006B400D0E789A10E9486138E818093F270AAC428
:1006C4008091F2700E948613A5C48CE00E94861368
:1006D400A1C486B384700E9486139CC40E948F13A5
:1006E4000E94861397C40E9495130E94861392C495
:1006F40080E00E9486138EC480E00E9486138AC420
:100704008091F6700E94861385C48091F5700E94D2
:10071400861380C4809182700E9486137BC480916A
:1007240083700E94861376C4809184700E9486131D
:1007340071C4809185700E9486136CC48091867008
:100744000E94861367C4809187700E94861362C4D6
:10075400809188700E9486135DC4809189700E9484
:10076400861358C480918A700E94861353C4809162
:100774008B700E9486134EC4822F90E0AC014150CE
:1007840051094138510564F04F535109403851051E
:100794003CF4FC01E858FD4580810E9486133AC46C
:1007A400213848F0880F991FFC01E250F1498181FA
:1007B4000E9486132FC48FEF0E9486132BC40E94BD
:1007C40089139091F470992329F08093F370109217
:1007D400F47020C4E091F37091E09E0F9093F37055
:1007E4004E2F50E0FA013197E734F10508F012C4B6
:1007F400EF54FF4F0C9453131092DC708093DD7010
:1008040009C42091DC703091DD70A901480F511D9D
:100814004093EC705093ED70FDC39091F87091602B
:100824009093F8702091DC703091DD70A901480F2D
:10083400511D4093EA705093EB70ECC39091F870A3
:1008440092609093F8702091DC703091DD70A90172
:10085400480F511D4093E8705093E970DBC39091A9
:10086400F87093609093F8702091DC703091DD7093
:10087400A901480F511D4093E6705093E770CAC315
:10088400823049F128F4882341F08130A9F0C2C3B1
:10089400833081F18430E9F1BDC385E00E94B30F58
:1008A40084E00E94C91280E280936104E5E7F4E0E9
:1008B4008081877F8083AEC385E00E94B30F84E08C
:1008C4000E94C91280E280936204E5E7F4E080812B
:1008D400877F80839FC385E00E943A1184E00E9451
:1008E400C91280E280936204E5E7F4E08081877FA7
:1008F400808390C385E00E94B30F84E00E94C912F4
:1009040080E280936204E5E7F4E08081886080837C
:1009140081C385E00E94B30F84E00E94E51280E267
:1009240080936104E5E7F4E08081877F808372C36C
:10093400823049F128F4882341F08130A9F06AC358
:10094400833081F18430E9F165C386E00E94B30FFE
:1009540085E00E94C91280E480936104E6E7F4E034
:100964008081877F808356C386E00E94B30F85E031
:100974000E94C91280E480936204E6E7F4E0808177
:10098400877F808347C386E00E943A1185E00E94F6
:10099400C91280E480936204E6E7F4E08081877FF3
:1009A400808338C386E00E94B30F85E00E94C91299
:1009B40080E480936204E6E7F4E0808188608083C9
:1009C40029C386E00E94B30F85E00E94E51280E40B
:1009D40080936104E6E7F4E08081877F80831AC313
:1009E400823049F128F4882341F08130A9F012C300
:1009F400833081F18430E9F10DC387E00E94B30FA5
:100A040086E00E94C91280E880936104E7E7F4E07D
:100A14008081877F8083FEC287E00E94B30F86E0D7
:100A24000E94C91280E880936204E7E7F4E08081C1
:100A3400877F8083EFC287E00E943A1186E00E949C
:100A4400C91280E880936204E7E7F4E08081877F3D
:100A54008083E0C287E00E94B30F86E00E94C9123F
:100A640080E880936204E7E7F4E080818860808313
:100A7400D1C287E00E94B30F86E00E94E51280E8AD
:100A840080936104E7E7F4E08081877F8083C2C2BA
:100A9400823049F128F4882341F08130A9F0BAC2A8
:100AA400833081F18430E9F1B5C280E10E94B30F53
:100AB40087E00E94C91281E08093A104E0EBF4E096
:100AC4008081877F8083A6C280E10E94B30F87E084
:100AD4000E94C91281E08093A204E0EBF4E08081DB
:100AE400877F808397C280E10E943A1187E00E9449
:100AF400C91281E08093A204E0EBF4E08081877F57
:100B0400808388C280E10E94B30F87E00E94C912EB
:100B140081E08093A204E0EBF4E08081886080832C
:100B240079C280E10E94B30F87E00E94E51281E060
:100B34008093A104E0EBF4E08081877F80836AC224
:100B4400823049F128F4882341F08130A9F062C24F
:100B5400833081F18430E9F15DC280E00E94B30FFB
:100B640080E00E94C91288E080936104E3E7F4E026
:100B74008081877F80834EC280E00E94B30F80E033
:100B84000E94C91288E080936204E3E7F4E0808164
:100B9400877F80833FC280E00E943A1180E00E94F8
:100BA400C91288E080936204E3E7F4E08081877FE0
:100BB400808330C280E00E94B30F80E00E94C9129B
:100BC40088E080936204E3E7F4E0808188608083B6
:100BD40021C280E00E94B30F80E00E94E51288E009
:100BE40080936104E3E7F4E08081877F808312C20D
:100BF400823049F128F4882341F08130A9F00AC2F7
:100C0400833081F18430E9F105C281E00E94B30FA1
:100C140081E00E94C91284E080936104E2E7F4E079
:100C24008081877F8083F6C181E00E94B30F81E0D9
:100C34000E94C91284E080936204E2E7F4E08081B8
:100C4400877F8083E7C181E00E943A1181E00E949E
:100C5400C91284E080936204E2E7F4E08081877F34
:100C64008083D8C181E00E94B30F81E00E94C91241
:100C740084E080936204E2E7F4E08081886080830A
:100C8400C9C181E00E94B30F81E00E94E51284E0B3
:100C940080936104E2E7F4E08081877F8083BAC1B6
:100CA400823049F128F4882341F08130A9F0B2C19F
:100CB400833081F18430E9F1ADC182E00E94B30F49
:100CC40082E00E94C91282E080936104E1E7F4E0CB
:100CD4008081877F80839EC182E00E94B30F82E07F
:100CE4000E94C91282E080936204E1E7F4E080810B
:100CF400877F80838FC182E00E943A1182E00E9444
:100D0400C91282E080936204E1E7F4E08081877F86
:100D1400808380C182E00E94B30F82E00E94C912E6
:100D240082E080936204E1E7F4E08081886080835C
:100D340071C182E00E94B30F82E00E94E51282E05A
:100D440080936104E1E7F4E08081877F808362C15E
:100D5400823049F128F4882341F08130A9F05AC146
:100D6400833081F18430E9F155C183E00E94B30FEF
:100D740083E00E94C91281E080936104E0E7F4E01B
:100D84008081877F808346C183E00E94B30F83E024
:100D94000E94C91281E080936204E0E7F4E080815C
:100DA400877F808337C183E00E943A1183E00E94E9
:100DB400C91281E080936204E0E7F4E08081877FD8
:100DC400808328C183E00E94B30F83E00E94C9128C
:100DD40081E080936204E0E7F4E0808188608083AE
:100DE40019C183E00E94B30F83E00E94E51281E001
:100DF40080936104E0E7F4E08081877F80830AC107
:100E0400811104C080E28093660404C180E280936F
:100E1400650400C1811104C080E480936604FAC0B3
:100E240080E480936504F6C0811104C080E8809357
:100E34006604F0C080E880936504ECC0811104C0AE
:100E440081E08093A604E6C081E08093A504E2C01B
:100E5400811104C088E080936604DCC088E080933C
:100E64006504D8C0811104C084E080936604D2C0B4
:100E740084E080936504CEC0811104C082E0809335
:100E84006604C8C082E080936504C4C0811104C0B4
:100E940081E080936604BEC081E080936504BAC09B
:100EA40088E08093A204B6C0811111C00E9482130D
:100EB4008091EE709091EF709D7B8093EE70909393
:100EC400EF701092F67085E00E94401311C00E94EA
:100ED40082138091F570847449F48091EE7090913E
:100EE400EF7092648093EE709093EF701092F670AE
:100EF4000E947E138FC081110EC00E94821388E06D
:100F0400809346048091F5708D7F8093F57083E023
:100F14000E9440137FC00E94821388E0809345049E
:100F24001092F67077C081110EC00E94821382E085
:100F3400809346048091F5708B7F8093F57084E0F4
:100F44000E94401367C00E94821382E0809345048C
:100F540061C081110EC00E94821384E08093A604B4
:100F64008091F5708E7F8093F57082E00E9440132B
:100F740051C00E94821384E08093A5044BC00E9458
:100F8400F21248C00E94BB1245C0882351F08091E0
:100F9400EE709091EF70977F8093EE709093EF7066
:100FA40039C08091EE709091EF7098608093EE70EC
:100FB4009093EF702FC0882351F08091EE70909140
:100FC400EF709F7E8093EE709093EF7009C08091D4
:100FD400EE709091EF7090618093EE709093EF704B
:100FE4000E947E1317C0882351F08091EE70909177
:100FF400EF7082608093EE709093EF7009C08091DF
:10100400EE709091EF708D7F8093EE709093EF70FF
:0C1014000E947E1381E0DF91CF910895CF
:1010200010E00F2EF6E0AF2EF4E0BF2EF02D3324AB
:101030003394CC24C3946894DD24D2F86894222499
:1010400021F86894442443F8C6EAD4E00F2EF0EA6D
:101050008F2E912CF02D0F2EF1EA6F2EF4E07F2EC3
:10106000F02D0F2EF0E5EF2EF12CF02D123089F13E
:1010700018F4112341F0FACF133009F4A3C014304F
:1010800009F4AFC0F3CF0E94901222E8F40120834C
:1010900084E00E9480128435904D70F40E94D71233
:1010A0004882F3014082F7018081816080838895C6
:1010B00080818E7F8083DACF0E940913E5EAF4E015
:1010C0004082F301408280E090E00E941413122DD0
:1010D000CDCF119B4AC00E946D138136994030F0EC
:1010E00080E090E00E94141314E0C0CF0E946D13C2
:1010F0009695879596958795837099278130910568
:1011000089F030F082309105C1F0039709F12AC0CF
:101110008091EE709091EF7087708093EE70909355
:10112000EF7020C08091EE709091EF7087708068B2
:101130008093EE709093EF7015C08091EE70909157
:10114000EF70877080628093EE709093EF700AC0AA
:101150008091EE709091EF70877088608093EE7050
:101160009093EF700E94D81181CF8FEF0E948C1363
:101170008FEF0E94921380E00E94F21280E00E94A2
:10118000BB12E5E4F4E0408281E59AE00E9463133B
:1011900085E39DE00E945E1384E00E94471382E78E
:1011A00091E00E9432138FEA9CE00E9468138091C4
:1011B000EE709091EF70897F8093EE709093EF7056
:1011C00013E054CF119904C08091F970811106C0C9
:1011D00080E090E00E94141314E048CF0E94F10BCD
:1011E00045CFF5013082F6013082E6E4F4E020825A
:1011F000408284E08883F894119905C00E946D13A1
:101200008136994080F0488280E090E00E9414137B
:101210000E946D130597E0F3432D68ED81E490E0A3
:101220000E94761323CF0E946D139695879596950D
:101230008795837099278130910591F030F0823045
:101240009105C9F0039711F12AC08091EE70909139
:10125000EF70877088608093EE709093EF701FC07E
:101260008091EE709091EF70877080628093EE7045
:101270009093EF7014C08091EE709091EF70877032
:1012800080688093EE709093EF7009C08091EE704B
:101290009091EF7087708093EE709093EF700E9442
:0412A000D811E4CEAF
:1012A400CF93DF9380E094E02CEDFC012083C0E435
:1012B400D4E02BE02883A0E6B4E01C9240EA54E09A
:1012C40024E3FA012083FC0114821C8214961C92EC
:1012D4001497FA01148228E0FC01208B218B128AD6
:1012E400138A148A158A168A178A188A198A1A8AF6
:1012F4001B8A1C8A1D8A1E8A1F8A50961C9250972C
:1013040051961C92519752961C92529753961C9246
:10131400539754961C92549755961C9255975696EB
:101324001C92569757961C92FA01108A118A128AB7
:10133400138A148A158A168A178AE0EEF5E0118654
:1013440011821082148283E086838783108615823B
:10135400128212868EE993E18093CC709093CD70C3
:101364008FE993E18093CA709093CB7080EA93E104
:101374008093C8709093C97081EA93E18093C6709A
:101384009093C77082EA93E18093C4709093C57080
:1013940083EA93E18093C2709093C37084EA93E1EB
:1013A4008093C0709093C17085EA93E18093BE707E
:1013B4009093BF7086EA93E18093BC709093BD7064
:1013C40087EA93E18093BA709093BB7088EA93E1C3
:1013D4008093B8709093B97089EA93E18093B67062
:1013E4009093B7708AEA93E18093B4709093B57048
:1013F4008BEA93E18093B2709093B3708CEA93E19B
:101404008093B0709093B1708DEA93E18093AE7045
:101414009093AF708EEA93E18093AC709093AD702B
:101424008FEA93E18093AA709093AB7080EB93E181
:101434008093A8709093A97081EB93E18093A67038
:101444009093A77082EB93E18093A4709093A5701E
:1014540083EB93E18093A2709093A37084EB93E168
:101464008093A0709093A17085EB93E180939E701C
:1014740090939F7086EB93E180939C7090939D7002
:1014840087EB93E180939A7090939B7088EB93E140
:0E1494008093987090939970DF91CF91089596
:1014A200E091F7708091F87090E00E2E02C0959551
:1014B20087950A94E2F780FF29C08E2F90E088304A
:1014C200910520F5FC01E850FF4F0C94531388E07E
:1014D200809366041BC084E08093660417C082E098
:1014E2008093660413C081E0809366040FC080E29B
:1014F200809366040BC080E48093660407C080E892
:101502008093660403C081E08093A604E091F770A3
:10151200E83009F497C0EF5FE093F7708091F870BC
:1015220090E00E2E02C0959587950A94E2F780FF0F
:101532007AC08E2F90E08830910508F074C0FC01CB
:10154200E050FF4F0C94531388E080936504E0E071
:10155200FAE010A211A28091EC709091ED7086A336
:1015620097A361C084E080936504E0E0FAE010A2F2
:1015720011A28091EA709091EB7086A397A353C059
:1015820082E080936504E0E0FAE010A211A280916B
:10159200E8709091E97086A397A345C081E080939B
:1015A2006504E0E0FAE010A211A28091E670909149
:1015B200E77086A397A337C080E280936504E0E0DA
:1015C200FAE010A211A28091E4709091E57086A3D6
:1015D20097A329C080E480936504E0E0FAE010A2BA
:1015E20011A28091E2709091E37086A397A31BC031
:1015F20080E880936504E0E0FAE010A211A28091F5
:10160200E0709091E17086A397A30DC081E0809372
:10161200A504E0E0FAE010A211A28091DE709091A0
:10162200DF7086A397A38091F770883041F4E0E0E1
:10163200FAE010A211A28FE192EB86A397A30E9477
:101642007A1308951092F7708091F87080FFF7CFA7
:021652007BCF4C
:101654001F920F920FB60F9211242F933F934F9323
:101664005F936F937F938F939F93AF93BF93EF9306
:10167400FF9380910B0983FD04C080910B0982FFC5
:101684001BC080910B0983FF0AC081E08093F07036
:10169400E0919470F091957085E009950DC080916A
:1016A4000B0982FF09C082E08093F070E09194708E
:1016B400F091957085E0099580910B09882384F059
:1016C40080910B0986FF04C080910B0980FD08C03E
:1016D40080910B0986FF72C080910B0980FD6EC05A
:1016E40080910B0986FF12C080910B0980FD0EC00A
:1016F400E0919470F091957084E00995E0E0F9E050
:1017040082E082878385816C838758C080910B092E
:1017140086FF2DC080910B0980FF29C080910C09A0
:10172400869590E080939670909397701092F070E5
:10173400E0919470F091957081E00995882399F077
:1017440080910B0981FD0BC0E0919470F09195702C
:1017540083E00995811103C086E080930A0983E040
:1017640080930A092BC086E080930A0927C08091E0
:101774000B0988231CF580910B0981FF10C0E091AF
:101784009470F091957083E00995811104C086E00E
:1017940080930A0913C083E080930A090FC0E09183
:1017A4009470F091957082E00995882321F083E08C
:1017B40080930A0903C086E080930A09FF91EF91A0
:1017C400BF91AF919F918F917F916F915F914F9155
:0E17D4003F912F910F900FBE0F901F90189510
:1017E200CF93DF938091FB70882309F4B4C00E94E9
:1017F2004D13882309F4AFC08091EE709091EF7081
:101802009F7D94608093EE709093EF700E94D81148
:1018120089E00E941611EC0188279F7381159A4274
:10182200D9F50E944D138823B9F1C7FF2CC0CE0110
:10183200807699278036910541F08091F670846018
:101842008093F67086E00E943913FE01EF78FF273D
:10185200E558F109EA30F105F8F4E75EFE4F0C9421
:10186200531385E00E9439138091F6708260809351
:10187200F67012C085E00E9439138091F67088607C
:101882008093F67009C0CF78DD27239729F48091E1
:10189200F67081608093F6708091EE709091EF7097
:1018A2009B7F90628093EE709093EF700E94D811AC
:1018B20089E00E941611EC0188279F7381159A42D4
:1018C200D9F50E944D138823B9F1C7FF2CC0CE0170
:1018D200807699278036910541F08091F670806478
:1018E2008093F67086E00E943913FE01EF78FF279D
:1018F200E558F109EA30F105F8F4ED5DFE4F0C947C
:10190200531385E00E9439138091F67080628093B0
:10191200F67012C085E00E9439138091F6708068DB
:101922008093F67009C0CF78DD27239729F4809140
:10193200F67080618093F6708091F6708E7E59F019
:101942008091EE709091EF709D7B8093EE709093FA
:0C195200EF700E94D811DF91CF91089532
:10195E008091FD7080FF0AC08091EE709091EF70C3
:10196E008B7F8093EE709093EF700EC08695909162
:10197E00FE70981748F08091EE709091EF70846031
:10198E008093EE709093EF700E947E132091FD7005
:10199E00422F50E08091FE7090E00196880F991FC3
:1019AE004817590724F081E08093FD7003C02F5F24
:1019BE002093FD708091FC70882321F081508093DC
:1019CE00FC700895B29B11C0B1990FC08091F57053
:1019DE0081608093F57084E08093A6048091FE7000
:1019EE00823018F482E08093FE70539B11C0529B9C
:1019FE000FC08091F57082608093F57088E08093BF
:101A0E0046048091FE70833018F483E08093FE705C
:101A1E00519B11C0B69B0FC08091F570846080936E
:101A2E00F57082E0809346048091FE70843018F445
:101A3E0084E08093FE7080910870909109708535D6
:101A4E00904D58F4519902C0B29B07C08091FE7020
:0C1A5E00811103C081E08093FE700895A8
:101A6A00CF93DF9380910A0680FD6DC00E945913BF
:101A7A00EC0180910806803451F4E0E0F6E082E05F
:101A8A0082878091FA70808781E082875CC0E091CA
:101A9A00FA70AE2FB0E0AA0FBB1FA050B049CD9389
:101AAA00DC93A0E0B6E082E01A968C931A9780E461
:101ABA0018968C93189781E01A968C938E2F90E043
:101ACA0081319105D0F5FC01E85FFE4F0C94531368
:101ADA00CE010E94B80EC435D04D38F48091F97009
:101AEA00811181508093F97003C084E08093F9706A
:101AFA0085E08093FA7085E88093A00024C086E090
:101B0A008093FA7020C087E08093FA701CC080E14D
:101B1A008093FA7018C01092FA7015C081E0809311
:101B2A00FA7011C082E08093FA700DC083E080934E
:101B3A00FA7009C082E88093A00084E08093FA706A
:0C1B4A0082E88093A000DF91CF91089505
:101B56001F920F920FB60F9211242F933F934F931C
:101B66005F936F937F938F939F93AF93BF93EF93FF
:101B7600FF931D9B05C0E091CC70F091CD70099547
:101B86001C9B05C0E091CA70F091CB7009951E9B15
:101B960005C0E091C870F091C97009951B9B05C0FE
:101BA600E091B070F091B17009951A9B05C0E09173
:101BB600AE70F091AF700995189B05C0E091AC70BE
:101BC600F091AD700995199B05C0E091AA70F0914E
:101BD600AB7009951F9B05C0E091A070F091A170B4
:101BE60009958FEF83B9FF91EF91BF91AF919F91C7
:101BF6008F917F916F915F914F913F912F910F90B0
:081C06000FBE0F901F9018950E
:101C0E001F920F920FB60F9211242F933F934F9363
:101C1E005F936F937F938F939F93AF93BF93EF9346
:101C2E00FF93789B05C0E091C670F091C77009953F
:101C3E00799B05C0E091C470F091C57009957A9BAF
:101C4E0005C0E091C270F091C37009957B9B05C0F1
:101C5E00E091C070F091C17009957C9B05C0E09138
:101C6E00BE70F091BF7009957D9B05C0E091BC7070
:101C7E00F091BD7009957E9B05C0E091BA70F09110
:101C8E00BB7009957F9B05C0E091B870F091B9705B
:101C9E0009958FEF8FB9FF91EF91BF91AF919F9102
:101CAE008F917F916F915F914F913F912F910F90F7
:081CBE000FBE0F901F90189556
:101CC6001F920F920FB60F9211242F933F934F93AB
:101CD6005F936F937F938F939F93AF93BF93EF938E
:101CE600FF93B89B05C0E091B670F091B770099567
:101CF600BD9B05C0E091B470F091B5700995BC9B91
:101D060005C0E091B270F091B3700995B99B05C01A
:101D1600E091A670F091A7700995BB9B05C0E09174
:101D2600A470F091A5700995BE9B05C0E091A270C4
:101D3600F091A3700995BA9B05C0E0919870F09157
:101D4600997009958FEF87BBFF91EF91BF91AF9186
:101D56009F918F917F916F915F914F913F912F91BD
:0A1D66000F900FBE0F901F9018950C
:101D7000803F2FEF920758F08091EE709091EF70B6
:101D80008770886A8093EE709093EF7036C08115EB
:101D90002AEF920758F08091EE709091EF70877063
:101DA000806A8093EE709093EF7027C08A3225EEA0
:101DB000920758F08091EE709091EF708770806F6D
:101DC0008093EE709093EF7018C08535904D58F069
:101DD0008091EE709091EF708770806C8093EE70C0
:101DE0009093EF700AC08091EE709091EF708770C1
:101DF00080648093EE709093EF7081E08093FB702D
:021E0000089543
:101E02001F920F920FB60F9211242F933F934F936D
:101E12005F936F937F938F939F93AF93BF93EF9350
:101E2200FF935A9B05C0E091A870F091A9700995A3
:101E3200589B05C0E0919E70F0919F700995599B47
:101E420005C0E0919C70F0919D7009955B9B05C067
:101E5200E0919A70F0919B7009958FEF8BB9FF9189
:101E6200EF91BF91AF919F918F917F916F915F9110
:101E72004F913F912F910F900FBE0F901F90189589
:101E82001F920F920FB60F9211242F933F934F93ED
:101E92005F936F937F938F939F93AF93BF93EF93D0
:101EA200FF938091430180FF07C0E091DA70F091C7
:101EB200DB70309709F009958091430181FF07C0DB
:101EC200E091D870F091D970309709F0099583E0CC
:101ED20080934301FF91EF91BF91AF919F918F91B9
:101EE2007F916F915F914F913F912F910F900FBE14
:061EF2000F901F901895EF
:101EF80040E068ED80E690E00E94761345E068EDEA
:101F080081E690E00E94761340E068ED82E690E07A
:101F18000E94761340E068ED83E690E00E94761315
:101F280044E268ED88E690E00E94761340E068EDB0
:101F380089E690E00E94761340E068ED88E790E03B
:101F48000E94761341E068ED80E790E00E947613E6
:0E1F580040E068ED8CE790E00E94761308955B
:101F6600282F833458F5E82FF0E081E090E0A0E0D8
:101F7600B0E004C0880F991FAA1FBB1F2A95D2F78D
:101F860080959095A095B09540918C7050918D70EC
:101F960060918E7070918F7084239523A623B7234A
:101FA60080938C7090938D70A0938E70B0938F7089
:0E1FB600EE0FFF1FE050F049108211820895D7
:101FC4001F920F920FB60F9211242F933F934F93AA
:101FD4005F936F937F938F939F93AF93BF93EF938D
:101FE400FF9382E080930D06E0919270F0919370DC
:101FF400309709F00995FF91EF91BF91AF919F91AF
:102004008F917F916F915F914F913F912F910F909D
:082014000FBE0F901F901895FC
:10201C001F920F920FB60F9211242F933F934F9351
:10202C005F936F937F938F939F93AF93BF93EF9334
:10203C00FF9381E080930D06E0919070F091917088
:10204C00309709F00995FF91EF91BF91AF919F9156
:10205C008F917F916F915F914F913F912F910F9045
:08206C000FBE0F901F901895A4
:102074001F920F920FB60F9211242F933F934F93F9
:102084005F936F937F938F939F93AF93BF93EF93DC
:10209400FF93E091D470F091D570309709F00995D1
:1020A40080E180930B0AFF91EF91BF91AF919F91D3
:1020B4008F917F916F915F914F913F912F910F90ED
:0820C4000FBE0F901F9018954C
:1020CC001F920F920FB60F9211242F933F934F93A1
:1020DC005F936F937F938F939F93AF93BF93EF9384
:1020EC00FF93E091D270F091D370309709F009957D
:1020FC0080E280930B0AFF91EF91BF91AF919F917A
:10210C008F917F916F915F914F913F912F910F9094
:08211C000FBE0F901F901895F3
:102124001F920F920FB60F9211242F933F934F9348
:102134005F936F937F938F939F93AF93BF93EF932B
:10214400FF93E091D070F091D170309709F0099528
:1021540080E480930B0AFF91EF91BF91AF919F911F
:102164008F917F916F915F914F913F912F910F903C
:082174000FBE0F901F9018959B
:10217C001F920F920FB60F9211242F933F934F93F0
:10218C005F936F937F938F939F93AF93BF93EF93D3
:10219C00FF93E091CE70F091CF70309709F00995D4
:1021AC0081E080930B0AFF91EF91BF91AF919F91CA
:1021BC008F917F916F915F914F913F912F910F90E4
:0821CC000FBE0F901F90189543
:1021D4001F920F920FB60F9211242F933F934F9398
:1021E4005F936F937F938F939F93AF93BF93EF937B
:1021F400FF93E091D670F091D770309709F009956C
:1022040081E080935301FF91EF91BF91AF919F9132
:102214008F917F916F915F914F913F912F910F908B
:082224000FBE0F901F901895EA
:10222C001F93CF93DF9300D0CDB7DEB78983E1E462
:10223C00F9E080818160808310E81093050462E0EE
:10224C0070E0CE0101960E9437121093060489812A
:10225C0090E0982F88272A81820F911D0F900F9064
:08226C00DF91CF911F9108954D
:10227400282F8334F8F481E090E0A0E0B0E004C0BB
:10228400880F991FAA1FBB1F2A95D2F740918C7003
:1022940050918D7060918E7070918F70842B952BFE
:1022A400A62BB72B80938C7090938D70A0938E7017
:0622B400B0938F70089545
:1022BA00E0E4F1E081818111FDCFE0E4F1E087E023
:1022CA0090E084879587108611868FEF9FEF82872B
:1022DA0093871782128281E5808381898111FDCFDC
:1022EA00E0E4F1E081E0828B81E6808B80E0089572
:1022FA00427261696E626F78332E30206265746152
:10230A00202D2020526F626F636F6E202863292070
:10231A0057696C6C204D756E6E73000000000000EA
:10232A0000000000000000000000000000000000A3
:10233A0041E050E060E070E004C0440F551F661FA2
:10234A00771F8A95D2F780918C7090918D70A091A9
:10235A008E70B0918F70482359236A237B2381E0C2
:0C236A00452B462B472B09F480E008951A
:10237600E0E0FAE010A611A612A613A614A615A66A
:1023860010A211A211821282138214821582168261
:1023960017821686118681E0828713862FE637E13B
:0A23A60026A337A31786808308954D
:1023B0000F931F93CF931092FB70E1E4F9E08081BB
:1023C0008C7F808305E414E0C1E0F801C08362E003
:1023D00070E08EEE90E70E944A12C0934604F80126
:0A23E000C083CF911F910F91089563
:1023EA00E0E0F6E085E08183128213821482168689
:1023FA00138681E0848784E0808780E481878AE08D
:10240A0085838FEF97E0848B958B128A138A81E1FB
:06241A00808380E00895BC
:102420008FEF9FEF80931C0B90931D0BE0E0FBE080
:102430001286138687E181831086148215821682A4
:08244000118681E080830895FC
:10244800E0E0F9E01082128280E18487168681EE4E
:1024580081871286158613868AE993E180939470A2
:06246800909395700895A9
:10246E00DC016115710571F0680F791FE0E4F9E088
:10247E008C91848393819923ECF784818D936A17D1
:06248E007B07B1F7089581
:102494006115710571F0DC01680F791FE0E4F9E062
:1024A4009D91948393819923ECF78481A617B707B0
:0424B400B9F70895D7
:1024B800E0E1FBE08FEF9FEF848795871286138614
:1024C80087E181831086148215821682118681E045
:0424D8008083089560
:1024DC002091F870422F50E021E030E002C0220F32
:1024EC00331F8A95E2F72423352381E0232B09F44B
:0424FC0080E00895DF
:10250000E0E0F6E0808781E082870E9472138823F2
:10251000E1F3E0E0F6E08089918921E025870895E4
:102520000E947C0F0E9452090E94F5110E945D11C9
:0E2530000E94FE120E942A130E94AD1208950E
:10253E0040E068ED80E191E00E947613E0E1F1E089
:0C254E00128287E08383789480E0089577
:10255A0044E068ED80E590E00E94761340E068ED83
:0C256A0081E590E00E94761380E0089567
:10257600E0E1FBE090819E7F90839FEF94878587C3
:0C25860012861386808181608083089596
:1025920021E030E002C0220F331F8A95E2F7209536
:0C25A2008091F87028232093F8700895B1
:1025AE008091EE709091EF7081709D7B806480932E
:0C25BE00EE709093EF700E94D811089509
:1025CA0021E030E002C0220F331F8A95E2F78091A2
:0A25DA00F870282B2093F870089584
:1025E400E0E0FBE090819E7F90839FEF9487858756
:0825F40080818160808308955D
:1025FC00E0E4F9E080E8818381E380831282109229
:06260C00F1701382089535
:102612000E9424120E94BB110E9410120E945C129E
:062622000E949F120895C2
:102628009C01E0E4F1E0918191FDFDCF2093480108
:06263800309349010895F2
:10263E00EC010E94BE130E94BD13CE010E94BF1377
:06264E00CE010E949C1366
:10265400E0EAF0E0148282E88083128280E0089548
:0E266400009721F080939470909395700895E4
:0E2672009091FE70981710F48093FE700895FA
:0E2680009091FE70981302C01092FE700895A3
:0C268E00E0E0F6E0808781E0828708959C
:0C269A0081E09091FC70911180E00895A7
:0C26A600EE0FFF1F0590F491E02D099449
:0A26B2008091100690911106089522
:0A26BC008093907090939170089540
:0A26C6008093CE709093CF700895BA
:0A26D0008093D6709093D7700895A0
:0A26DA008091480190914901089594
:0826E40080910D06817008953C
:0826EC00FC0164BF4083089566
:0826F40081E080930B0A0895B8
:0826FC0081E08093FB7008955A
:0827040084E08093FC7008954D
:06270C0080930D09089501
:0627120080910D090895FD
:0627180080930C0B0895F4
:06271E0080910D0B0895EF
:0627240080931C0B0895D8
:06272A0080911D0B0895D3
:042730000C94000005
:0427340080E00895A4
:042738000E9470018A
:02273C000895FE
:02273E000895FC
:022740000895FA
:022742000895F8
:022744000895F6
:022746000895F4
:022748000895F2
:02274A000895F0
:02274C000895EE
:02274E000895EC
:022750000895EA
:022752000895E8
:022754000895E6
:022756000895E4
:022758000895E2
:02275A000895E0
:02275C000895DE
:02275E000895DC
:022760000895DA
:022762000895D8
:022764000895D6
:022766000895D4
:022768000895D2
:02276A000895D0
:02276C000895CE
:02276E000895CC
:022770000895CA
:022772000895C8
:022774000895C6
:022776000895C4
:022778000895C2
:02277A000895C0
:02277C000895BE
:02277E000895BC
:042780001000000045
:02278400BC1384
:02278600BB1383
:02278800BA1382
:02278A00B91381
:02278C009311A7
:02278E009311A5
:022790009311A3
:022792009311A1
:0227940093119F
:0227960093119D
:0227980093119B
:02279A00931199
:01279C000F2D
:01279D000239
:01279E000436
:02000004008278
:090000000000000000C000000037
:00000001FF
