:100000000C948A010C949F130C949F130C94590F19
:100010000C9402110C949F130C94C30D0C94D610E5
:100020000C949F130C9452100C947E100C94AA10F4
:100030000C949F130C949F130C949F130C949F1378
:100040000C94170C0C949F130C949F130C949F13F7
:100050000C949F130C949F130C941F0E0C949F13DD
:100060000C9426100C94FA0F0C949F130C949F136D
:100070000C949F130C94190F0C949F130C949F13C2
:100080000C949F130C949F130C947B0E0C949F1351
:100090000C949F130C949F130C949F130C949F1318
:1000A0000C949F130C949F130C949F130C949F1308
:1000B000D101E501D601EA01DB01EF01E001F40124
:1000C00049039A0352039A035B039A0364039A0356
:1000D000F9011E0243026802210326032B033003A9
:1000E000F403F403F4036D039A03F403F4039F038E
:1000F000F403A303F403AD03A803B503B203B803E9
:10010000BD03F403F403F403F403F403F403F4036E
:10011000F403F403F403F403F403F403F4037603A5
:100120009A037F039A0388039A0391039A038D022B
:10013000B202D702FC0235033A033F034403F4033F
:10014000F403F403F403F403F403F403F403C20329
:10015000C703CC03D103D603DB03E003E503EA03C3
:10016000EF031F0424041F0430041F0441041F0470
:1001700052043E083E083E083E083E083E083E083F
:100180003E086304BB0413056B0523072D073707DF
:1001900041071608730777073E083E083E083E08E9
:1001A0003E08B607CC079E07E507E207FE07E8070B
:1001B0003E083E083E083E083E083E083E083E080F
:1001C0003E083E083E083E083E083E083E083E08FF
:1001D0003E083E083E083E083E083E083E083E08EF
:1001E000C3051B067306CB064B0755075F07690758
:1001F0003E083E083E083E083E083E083E083E08CF
:100200003E083E083E083E083E083E083E083E08BE
:100210003E083E083E083E083E083E083E083E08AE
:100220003E083E083E083E083E083E083E083E089E
:100230003E083E083E083E083E083E083E083E088E
:100240003E083E083E083E083E083E083E083E087E
:100250003E083E083E083E083E083E083E083E086E
:100260003E082E0838083C08970A9B0A9F0AA30AF2
:10027000A70AAB0AAF0AB30AD40AE20AF00AFE0AD6
:100280000C0B1A0B280B360BAB0DAF0DB30DB70DC6
:10029000850D9C0DA00DA40DBA0DBA0DBA0DBA0DA9
:1002A000BA0DBA0DBA0DBA0DA80DA30BB50BA30B61
:1002B000B50BB50BA30BA30B9A0BA30BA30BF30B63
:1002C000050CF30B050C050CF30BF30BEA0BF30B0E
:1002D000F30B70007082807082710100278E7101B3
:1002E000710B80710B710F00280D710F714D8071B2
:1002F0004D71550028117155715D80715D716D00F2
:100300002819716D7179807179717C002829717C4F
:100310007180800011241FBECFEFCDBFDFE7DEBFAD
:10032000E2EDF2E043E017C0B591A591359125913A
:10033000059107FD0CC095918591EF01F92FE82FEC
:1003400005900D92A217B307D9F7FE0104C01D92C4
:10035000A217B307E1F7E331F40731F70E94400831
:080360000C942C13F894FFCF5C
:10036800823009F44BC2833031F0813009F082C603
:10037800809373717FC6E091727121E02E0F2093F4
:1003880072718E2F90E0FC013197E935F10508F084
:1003980027C2E85AFF4F0C94601380916C718093C8
:1003A8000D0968C680916A7180930D0963C68091B2
:1003B800687180930D095EC68091667180930D09FE
:1003C80059C680916B7180930D0954C680916971EB
:1003D80080930D094FC68091677180930D094AC6B5
:1003E8008091657180930D0945C685E00E9495113D
:1003F800882321F082E080930D093CC684E00E94A6
:100408007B12882321F084E080930D0933C6809104
:100418006004857019F010920D092CC6809175043E
:1004280083FF04C083E080930D0924C681E0809394
:100438000D0920C686E00E949511882321F082E0EC
:1004480080930D0917C685E00E947B12882321F04E
:1004580084E080930D090EC68091600486FF03C076
:1004680010920D0907C68091760483FF04C083E0CB
:1004780080930D09FFC581E080930D09FBC587E0D6
:100488000E949511882321F082E080930D09F2C51E
:1004980086E00E947B12882321F084E080930D0976
:1004A800E9C58091600488231CF410920D09E2C507
:1004B8008091770483FF04C083E080930D09DAC537
:1004C80081E080930D09D6C580E10E9495118823AB
:1004D80021F082E080930D09CDC587E00E947B1250
:1004E800882321F084E080930D09C4C58091A0047D
:1004F80080FF03C010920D09BDC58091B00483FF31
:1005080004C083E080930D09B5C581E080930D098F
:10051800B1C580E00E949511882321F082E0809384
:100528000D09A8C580E00E947B12882321F084E091
:1005380080930D099FC58091600480FF03C01092CD
:100548000D0998C58091700483FF04C083E08093EF
:100558000D0990C581E080930D098CC581E00E944A
:100568009511882321F082E080930D0983C581E0ED
:100578000E947B12882321F084E080930D097AC5BC
:100588008091600481FF03C010920D0973C58091AA
:10059800710483FF04C083E080930D096BC581E07B
:1005A80080930D0967C582E00E949511882321F088
:1005B80082E080930D095EC582E00E947B12882349
:1005C80021F084E080930D0955C58091600482FF75
:1005D80003C010920D094EC58091720483FF04C0B8
:1005E80083E080930D0946C581E080930D0942C5DB
:1005F80083E00E949511882321F082E080930D0901
:1006080039C583E00E947B12882321F084E080931F
:100618000D0930C58091600483FF03C010920D0955
:1006280029C58091730483FF04C083E080930D097A
:1006380021C581E080930D091DC58EB1807280931C
:100648000D0918C58EB1807480930D0913C58EB13C
:10065800807880930D090EC586B3817080930D094B
:1006680009C58EB1817080930D0904C58EB1827061
:1006780080930D09FFC48EB1847080930D09FAC46C
:100688008EB1887080930D09F5C4E0E0F0E78285AB
:10069800938590930D0980937171ECC4E0E0F0E7C5
:1006A800858580930D09848580937171E3C4E0E0AA
:1006B800F0E7878580930D09868580937171DAC488
:1006C800E0E0F0E781A180930D0980A1809371712A
:1006D800D1C4E0E0F0E78085918590930D0980937F
:1006E8007171C8C4E0E0F0E78081918190930D09B1
:1006F80080937171BFC4E0E0F0E7828193819093A9
:100708000D0980937171B6C4E0E0F0E787858093A6
:100718000D09848180937171ADC4E0E0F0E781A197
:1007280080930D09868180937171A4C48091717141
:1007380080930D099FC48BE080930D099BC486B3F9
:10074800847080930D0996C40E94961380930D09B6
:1007580091C40E949C1380930D098CC410920D09BA
:1007680089C410920D0986C48091777180930D0910
:1007780081C48091767180930D097CC48091017148
:1007880080930D0977C48091027180930D0972C41A
:100798008091037180930D096DC4809104718093D9
:1007A8000D0968C48091057180930D0963C4809117
:1007B800067180930D095EC48091077180930D09BD
:1007C80059C48091087180930D0954C480910971AE
:1007D80080930D094FC480910A7180930D094AC412
:1007E800213840F0E22FF0E0EF5FFF4880818093EE
:1007F8000D0940C48FEF80930D093CC480910D0909
:1008080090917371992329F080937271109273718A
:1008180031C4E091727191E09E0F909372714E2FE6
:1008280050E0FA013197E338F10508F023C4EF549A
:10083800FF4F0C94601310925B7180935C711AC423
:1008480020915B7130915C71A901480F511D409353
:100858006B7150936C710EC4909179719160909303
:10086800797120915B7130915C71A901480F511D1C
:100878004093697150936A71FDC390917971926048
:100888009093797120915B7130915C71A901480F47
:10089800511D4093677150936871ECC390917971C1
:1008A80093609093797120915B7130915C71A9018B
:1008B800480F511D4093657150936671DBC38230B8
:1008C80049F128F4882341F08130A9F0D3C383305B
:1008D80081F18430E9F1CEC385E00E94CB0F84E03A
:1008E8000E94D61280E280936104E5E7F4E08081FB
:1008F800877F8083BFC385E00E94CB0F84E00E947E
:10090800D61280E280936204E5E7F4E08081877F75
:100918008083B0C385E00E94521184E00E94D61201
:1009280080E280936204E5E7F4E08081877F80833A
:10093800A1C385E00E94CB0F84E00E94D61280E21A
:1009480080936204E5E7F4E080818860808392C345
:1009580085E00E94CB0F84E00E94F21280E280932F
:100968006104E5E7F4E08081877F808383C3823078
:1009780049F128F4882341F08130A9F07BC3833002
:1009880081F18430E9F176C386E00E94CB0F85E0DF
:100998000E94D61280E480936104E6E7F4E0808147
:1009A800877F808367C386E00E94CB0F85E00E9423
:1009B800D61280E480936204E6E7F4E08081877FC2
:1009C800808358C386E00E94521185E00E94D612A7
:1009D80080E480936204E6E7F4E08081877F808387
:1009E80049C386E00E94CB0F85E00E94D61280E4BE
:1009F80080936204E6E7F4E08081886080833AC3EC
:100A080086E00E94CB0F85E00E94F21280E480937A
:100A18006104E6E7F4E08081877F80832BC382301E
:100A280049F128F4882341F08130A9F023C38330A9
:100A380081F18430E9F11EC387E00E94CB0F86E084
:100A48000E94D61280E880936104E7E7F4E0808191
:100A5800877F80830FC387E00E94CB0F86E00E94C8
:100A6800D61280E880936204E7E7F4E08081877F0C
:100A7800808300C387E00E94521186E00E94D6124C
:100A880080E880936204E7E7F4E08081877F8083D1
:100A9800F1C287E00E94CB0F86E00E94D61280E860
:100AA80080936204E7E7F4E0808188608083E2C293
:100AB80087E00E94CB0F86E00E94F21280E88093C4
:100AC8006104E7E7F4E08081877F8083D3C28230C6
:100AD80049F128F4882341F08130A9F0CBC2833052
:100AE80081F18430E9F1C6C280E10E94CB0F87E032
:100AF8000E94D61281E08093A104E0EBF4E08081AB
:100B0800877F8083B7C280E10E94CB0F87E00E9475
:100B1800D61281E08093A204E0EBF4E08081877F25
:100B28008083A8C280E10E94521187E00E94D612F9
:100B380081E08093A204E0EBF4E08081877F8083EA
:100B480099C280E10E94CB0F87E00E94D61281E013
:100B58008093A204E0EBF4E08081886080838AC2FD
:100B680080E10E94CB0F87E00E94F21281E080931F
:100B7800A104E0EBF4E08081877F80837BC2823030
:100B880049F128F4882341F08130A9F073C28330F9
:100B980081F18430E9F16EC280E00E94CB0F80E0E1
:100BA8000E94D61281E080936104E0E7F4E080813E
:100BB800877F80835FC280E00E94CB0F80E00E9425
:100BC800D61281E080936204E0E7F4E08081877FB9
:100BD800808350C280E00E94521180E00E94D612A9
:100BE80081E080936204E0E7F4E08081877F80837E
:100BF80041C280E00E94CB0F80E00E94D61281E0C3
:100C080080936204E0E7F4E080818860808332C2E8
:100C180080E00E94CB0F80E00E94F21281E0809376
:100C28006104E0E7F4E08081877F808323C282301B
:100C380049F128F4882341F08130A9F01BC28330A0
:100C480081F18430E9F116C281E00E94CB0F81E086
:100C58000E94D61282E080936104E1E7F4E080818B
:100C6800877F808307C281E00E94CB0F81E00E94CA
:100C7800D61282E080936204E1E7F4E08081877F06
:100C88008083F8C181E00E94521181E00E94D6124F
:100C980082E080936204E1E7F4E08081877F8083CB
:100CA800E9C181E00E94CB0F81E00E94D61282E068
:100CB80080936204E1E7F4E0808188608083DAC190
:100CC80081E00E94CB0F81E00E94F21282E08093C3
:100CD8006104E1E7F4E08081877F8083CBC18230C3
:100CE80049F128F4882341F08130A9F0C3C1833049
:100CF80081F18430E9F1BEC182E00E94CB0F82E02D
:100D08000E94D61284E080936104E2E7F4E08081D7
:100D1800877F8083AFC182E00E94CB0F82E00E9470
:100D2800D61284E080936204E2E7F4E08081877F52
:100D38008083A0C182E00E94521182E00E94D612F4
:100D480084E080936204E2E7F4E08081877F808317
:100D580091C182E00E94CB0F82E00E94D61284E00B
:100D680080936204E2E7F4E080818860808382C136
:100D780082E00E94CB0F82E00E94F21284E080930E
:100D88006104E2E7F4E08081877F808373C1823069
:100D980049F128F4882341F08130A9F06BC18330F0
:100DA80081F18430E9F166C183E00E94CB0F83E0D2
:100DB8000E94D61288E080936104E3E7F4E0808122
:100DC800877F808357C183E00E94CB0F83E00E9416
:100DD800D61288E080936204E3E7F4E08081877F9D
:100DE800808348C183E00E94521183E00E94D6129A
:100DF80088E080936204E3E7F4E08081877F808362
:100E080039C183E00E94CB0F83E00E94D61288E0AC
:100E180080936204E3E7F4E08081886080832AC1DC
:100E280083E00E94CB0F83E00E94F21288E0809357
:100E38006104E3E7F4E08081877F80831BC181112F
:100E480004C080E28093660415C180E28093650443
:100E580011C1811104C080E4809366040BC180E451
:100E68008093650407C1811104C080E880936604FB
:100E780001C180E880936504FDC0811104C081E050
:100E88008093A604F7C081E08093A504F3C0811184
:100E980004C081E080936604EDC081E0809365041E
:100EA800E9C0811104C082E080936604E3C082E057
:100EB80080936504DFC0811104C084E080936604D8
:100EC800D9C084E080936504D5C0811104C088E04E
:100ED80080936604CFC088E080936504CBC088E027
:100EE8008093A204C7C0811111C00E948F13809102
:100EF8006D7190916E719D7B80936D7190936E7101
:100F08001092777185E00E944D1311C00E948F13D3
:100F180080917671847449F480916D7190916E71AD
:100F2800926480936D7190936E71109277710E94A4
:100F38008B13A0C081110EC00E948F1388E080938C
:100F48004604809176718D7F8093767183E00E944C
:100F58004D1390C00E948F1388E08093450410922F
:100F6800777188C081110EC00E948F1382E0809330
:100F78004604809176718B7F8093767184E00E941D
:100F88004D1378C00E948F1382E08093450472C08D
:100F980081110EC00E948F1384E08093A604809173
:100FA80076718E7F8093767182E00E944D1362C0C5
:100FB8000E948F1384E08093A5045CC00E94FF12F6
:100FC80059C00E94C81256C0882351F080916D7193
:100FD80090916E71977F80936D7190936E714AC0F6
:100FE80080916D7190916E71986080936D719093FE
:100FF8006E7140C0882351F080916D7190916E712F
:101008009F7E80936D7190936E7109C080916D7110
:1010180090916E71906180936D7190936E710E9442
:101028008B1328C0882351F080916D7190916E7157
:10103800826080936D7190936E7109C080916D711B
:1010480090916E718D7F80936D7190936E710E94F7
:101058008B1310C01092757180E00E940812809165
:1010680075718F3FC9F706C081E08093747102C023
:081078001092747181E00895EB
:1010800010E00F2EF6E0AF2EF4E0BF2EF02D33244B
:101090003394CC24C3946894DD24D2F86894222439
:1010A00021F86894442443F8C6EAD4E00F2EF0EA0D
:1010B0008F2E912CF02D0F2EF1EA6F2EF4E07F2E63
:1010C000F02D0F2EF0E5EF2EF12CF02D123089F1DE
:1010D00018F4112341F0FACF133009F4A3C01430EF
:1010E00009F4AEC0F3CF0E949D1222E8F4012083E0
:1010F00084E00E948D128435904D70F40E94E412B9
:101100004882F3014082F701808181608083889565
:1011100080818E7F8083DACF0E941613E5EAF4E0A7
:101120004082F301408280E090E00E942113122D62
:10113000CDCF119B4AC00E947A138136994030F07E
:1011400080E090E00E94211314E0C0CF0E947A1347
:101150009695879596958795837099278130910507
:1011600089F030F082309105C1F0039709F12AC06F
:1011700080916D7190916E71877080936D71909375
:101180006E7120C080916D7190916E7187708068D2
:1011900080936D7190936E7115C080916D71909177
:1011A0006E718770806280936D7190936E710AC0CA
:1011B00080916D7190916E718770886080936D7170
:1011C00090936E710E94D01181CF8FEF0E94931384
:1011D0008FEF0E94991380E00E94FF1280E00E942E
:1011E000C812E5E4F4E0408280E89AE00E947013BF
:1011F0008DE49DE00E946B1384E00E94541384EB05
:1012000091E00E943F1387EC9CE00E94751380914F
:101210006D7190916E71897F80936D7190936E71F5
:1012200013E054CF119904C080917A71811105C0E7
:1012300080E090E00E94211314E00E94590B46CFF9
:10124000F5013082F6013082E6E4F4E0208240824B
:1012500084E08883F894119905C00E947A1381363E
:10126000994080F0488280E090E00E9421130E9423
:101270007A130597E0F3432D68ED81E490E00E9436
:10128000831324CF0E947A13969587959695879518
:10129000837099278130910591F030F0823091056B
:1012A000C9F0039711F12AC080916D7190916E7110
:1012B0008770886080936D7190936E711FC080916C
:1012C0006D7190916E718770806280936D71909353
:1012D0006E7114C080916D7190916E71877080688D
:1012E00080936D7190936E7109C080916D71909132
:1012F0006E71877080936D7190936E710E94D011A2
:02130000E5CE38
:10130200CF93DF9380E094E02CEDFC012083C0E4D6
:10131200D4E02BE02883A0E6B4E01C9240EA54E03B
:1013220024E3FA012083FC0114821C8214961C928D
:101332001497FA01148228E0FC01208B218B128A77
:10134200138A148A158A168A178A188A198A1A8A97
:101352001B8A1C8A1D8A1E8A1F8A50961C925097CD
:1013620051961C92519752961C92529753961C92E8
:10137200539754961C92549755961C92559756968D
:101382001C92569757961C92FA01108A118A128A59
:10139200138A148A158A168A178AE0EEF5E01186F6
:1013A20011821082148283E08683878310861582DD
:1013B2001282128685EA93E180934B7190934C716D
:1013C20086EA93E18093497190934A7187EA93E1A7
:1013D200809347719093487188EA93E180934571B5
:1013E2009093467189EA93E180934371909344719B
:1013F2008AEA93E180934171909342718BEA93E17F
:1014020080933F71909340718CEA93E180933D7198
:1014120090933E718DEA93E180933B7190933C717E
:101422008EEA93E18093397190933A718FEA93E156
:10143200809337719093387180EB93E1809335718B
:101442009093367181EB93E1809333719093347171
:1014520082EB93E1809331719093327183EB93E14C
:1014620080932F719093307184EB93E180932D716F
:1014720090932E7185EB93E180932B7190932C7155
:1014820086EB93E18093297190932A7187EB93E124
:10149200809327719093287188EB93E18093257153
:1014A2009093267189EB93E1809323719093247139
:1014B2008AEB93E180932171909322718BEB93E1FC
:1014C20080931F71909320718CEB93E180931D7137
:1014D20090931E718DEB93E180931B7190931C711D
:1014E2008EEB93E18093197190931A718FEB93E1D4
:0E14F2008093177190931871DF91CF91089538
:10150000E09178718091797190E00E2E02C09595EE
:1015100087950A94E2F780FF29C08E2F90E08830EB
:10152000910520F5FC01EC5CFE4F0C94601381E00A
:10153000809366041BC082E08093660417C084E039
:101540008093660413C088E0809366040FC080E235
:10155000809366040BC080E48093660407C080E833
:101560008093660403C081E08093A604E0917871C3
:10157000E83009F497C0EF5FE0937871809179715A
:1015800090E00E2E02C0959587950A94E2F780FFB1
:101590007AC08E2F90E08830910508F074C0FC016D
:1015A000E45CFE4F0C94601381E080936504E0E0FE
:1015B000FAE010A211A280916B7190916C7186A3D8
:1015C00097A361C082E080936504E0E0FAE010A296
:1015D00011A28091697190916A7186A397A353C0FB
:1015E00084E080936504E0E0FAE010A211A280910B
:1015F00067719091687186A397A345C088E0809336
:101600006504E0E0FAE010A211A28091657190916A
:10161000667186A397A337C080E280936504E0E0FB
:10162000FAE010A211A2809163719091647186A377
:1016300097A329C080E480936504E0E0FAE010A25B
:1016400011A2809161719091627186A397A31BC0D2
:1016500080E880936504E0E0FAE010A211A2809196
:101660005F719091607186A397A30DC081E0809314
:10167000A504E0E0FAE010A211A280915D719091C2
:101680005E7186A397A380917871883041F4E0E081
:10169000FAE010A211A28FE192EB86A397A30E9419
:1016A00087130895109278718091797180FFF7CF38
:0216B0007BCFEE
:1016B200CF93DF9380917C71882309F4B4C00E9498
:1016C2005A13882309F4AFC080916D7190916E71A5
:1016D2009F7D946080936D7190936E710E94D01182
:1016E20089E00E942E11EC0188279F7381159A428E
:1016F200D9F50E945A138823B9F1C7FF2CC0CE0135
:10170200807699278036910541F0809177718460C7
:101712008093777186E00E944613FE01EF78FF27DF
:10172200E558F109EA30F105F8F4EB5AFE4F0C9452
:10173200601385E00E9446138091777182608093E6
:10174200777112C085E00E9446138091777188609C
:101752008093777109C0CF78DD27239729F4809190
:10176200777181608093777180916D7190916E71C4
:101772009B7F906280936D7190936E710E94D011E5
:1017820089E00E942E11EC0188279F7381159A42ED
:10179200D9F50E945A138823B9F1C7FF2CC0CE0194
:1017A200807699278036910541F080917771806427
:1017B2008093777186E00E944613FE01EF78FF273F
:1017C200E558F109EA30F105F8F4E15AFE4F0C94BC
:1017D200601385E00E944613809177718062809346
:1017E200777112C085E00E944613809177718068FC
:1017F2008093777109C0CF78DD27239729F48091F0
:101802007771806180937771809177718E7E59F0C4
:1018120080916D7190916E719D7B80936D719093AB
:0C1822006E710E94D011DF91CF910895EB
:10182E001F920F920FB60F9211242F933F934F9347
:10183E005F936F937F938F939F93AF93BF93EF932A
:10184E00FF9380910B0983FD04C080910B0982FFE9
:10185E001BC080910B0983FF0AC081E080936F71DA
:10186E00E0911371F091147185E009950DC080918E
:10187E000B0982FF09C082E080936F71E0911371B2
:10188E00F091147185E0099580910B09882384F0FD
:10189E0080910B0986FF04C080910B0980FD08C062
:1018AE0080910B0986FF5BC080910B0980FD57C0AC
:1018BE0080910B0986FF2CC080910B0980FF1AC006
:1018CE0080910C09869590E0809315719093167116
:1018DE0010926F71E0911371F091147181E009957E
:1018EE00882321F083E080930A0939C086E0809333
:1018FE000A0935C0E0911371F091147184E00995D5
:10190E00E0E0F9E082E082878385816C838727C0DF
:10191E0080910B0988231CF580910B0981FF10C063
:10192E00E0911371F091147183E00995811104C057
:10193E0086E080930A0913C083E080930A090FC0E2
:10194E00E0911371F091147182E00995882321F0D2
:10195E0083E080930A0903C086E080930A09FF9111
:10196E00EF91BF91AF919F918F917F916F915F9109
:10197E004F913F912F910F900FBE0F901F90189582
:10198E0080917E7180FF0AC080916D7190916E7111
:10199E008B7F80936D7190936E710EC08695909132
:1019AE007F71981748F080916D7190916E7184607F
:1019BE0080936D7190936E710E948B1320917E7146
:1019CE00422F50E080917F7190E00196880F991F11
:1019DE004817590724F081E080937E7103C02F5F72
:1019EE0020937E7180917D71882321F081508093A8
:1019FE007D710895B29B11C0B1990FC0809176711F
:101A0E0081608093767184E08093A60480917F71CB
:101A1E00823018F482E080937F71539B11C0529BE9
:101A2E000FC08091767182608093767188E080938A
:101A3E00460480917F71833018F483E080937F7128
:101A4E00519B11C0B69B0FC08091767184608093BC
:101A5E00767182E08093460480917F71843018F411
:101A6E0084E080937F718091087090910970853524
:101A7E00904D58F4519902C0B29B07C080917F716E
:0C1A8E00811103C081E080937F710895F6
:101A9A00CF93DF9380910A0680FD6DC00E94661382
:101AAA00EC0180910806803451F4E0E0F6E082E02F
:101ABA00828780917B71808781E082875CC0E09118
:101ACA007B71AE2FB0E0AA0FBB1FA050B049CD93D7
:101ADA00DC93A0E0B6E082E01A968C931A9780E431
:101AEA0018968C93189781E01A968C938E2F90E013
:101AFA0081319105D0F5FC01EC5BFE4F0C9460132B
:101B0A00CE010E94D00EC435D04D38F480917A713E
:101B1A008111815080937A7103C084E080937A7135
:101B2A0085E080937B7185E88093A00024C086E0DD
:101B3A0080937B7120C087E080937B711CC080E119
:101B4A0080937B7118C010927B7115C081E08093DD
:101B5A007B7111C082E080937B710DC083E080931A
:101B6A007B7109C082E88093A00084E080937B7136
:0C1B7A0082E88093A000DF91CF910895D5
:101B86001F920F920FB60F9211242F933F934F93EC
:101B96005F936F937F938F939F93AF93BF93EF93CF
:101BA600FF931D9B05C0E0914B71F0914C71099517
:101BB6001C9B05C0E0914971F0914A7109951E9BE5
:101BC60005C0E0914771F091487109951B9B05C0CE
:101BD600E0912F71F091307109951A9B05C0E09143
:101BE6002D71F0912E710995189B05C0E0912B710E
:101BF600F0912C710995199B05C0E0912971F0911E
:101C06002A7109951F9B05C0E0911F71F091207103
:101C160009958FEF83B9FF91EF91BF91AF919F9196
:101C26008F917F916F915F914F913F912F910F907F
:081C36000FBE0F901F901895DE
:101C3E001F920F920FB60F9211242F933F934F9333
:101C4E005F936F937F938F939F93AF93BF93EF9316
:101C5E00FF93789B05C0E0914571F091467109950F
:101C6E00799B05C0E0914371F091447109957A9B7F
:101C7E0005C0E0914171F091427109957B9B05C0C1
:101C8E00E0913F71F091407109957C9B05C0E09108
:101C9E003D71F0913E7109957D9B05C0E0913B71C0
:101CAE00F0913C7109957E9B05C0E0913971F091E0
:101CBE003A7109957F9B05C0E0913771F0913871AB
:101CCE0009958FEF8FB9FF91EF91BF91AF919F91D2
:101CDE008F917F916F915F914F913F912F910F90C7
:081CEE000FBE0F901F90189526
:101CF6001F920F920FB60F9211242F933F934F937B
:101D06005F936F937F938F939F93AF93BF93EF935D
:101D1600FF93B89B05C0E0913571F0913671099536
:101D2600BD9B05C0E0913371F09134710995BC9B60
:101D360005C0E0913171F09132710995B99B05C0EA
:101D4600E0912571F09126710995BB9B05C0E09144
:101D56002371F09124710995BE9B05C0E091217114
:101D6600F09122710995BA9B05C0E0911771F09127
:101D7600187109958FEF87BBFF91EF91BF91AF91D6
:101D86009F918F917F916F915F914F913F912F918D
:0A1D96000F900FBE0F901F901895DC
:101DA000803F2FEF920758F080916D7190916E7186
:101DB0008770886A80936D7190936E7136C08115BB
:101DC0002AEF920758F080916D7190916E71877033
:101DD000806A80936D7190936E7127C08A3225EE70
:101DE000920758F080916D7190916E718770806F3D
:101DF00080936D7190936E7118C08535904D58F039
:101E000080916D7190916E718770806C80936D710F
:101E100090936E710AC080916D7190916E71877010
:101E2000806480936D7190936E7181E080937C717A
:021E3000089513
:101E32001F920F920FB60F9211242F933F934F933D
:101E42005F936F937F938F939F93AF93BF93EF9320
:101E5200FF935A9B05C0E0912771F0912871099573
:101E6200589B05C0E0911D71F0911E710995599B17
:101E720005C0E0911B71F0911C7109955B9B05C037
:101E8200E0911971F0911A7109958FEF8BB9FF9159
:101E9200EF91BF91AF919F918F917F916F915F91E0
:101EA2004F913F912F910F900FBE0F901F90189559
:101EB2001F920F920FB60F9211242F933F934F93BD
:101EC2005F936F937F938F939F93AF93BF93EF93A0
:101ED200FF938091430180FF07C0E0915971F09117
:101EE2005A71309709F009958091430181FF07C02B
:101EF200E0915771F0915871309709F0099583E09C
:101F020080934301FF91EF91BF91AF919F918F9188
:101F12007F916F915F914F913F912F910F900FBEE3
:061F22000F901F901895BE
:101F280040E068ED80E690E00E94831345E068EDAC
:101F380081E690E00E94831340E068ED82E690E03D
:101F48000E94831340E068ED83E690E00E948313CB
:101F580044E268ED88E690E00E94831340E068ED73
:101F680089E690E00E94831340E068ED88E790E0FE
:101F78000E94831341E068ED80E790E00E9483139C
:0E1F880040E068ED8CE790E00E94831308951E
:101F9600282F833458F5E82FF0E081E090E0A0E0A8
:101FA600B0E004C0880F991FAA1FBB1F2A95D2F75D
:101FB60080959095A095B09540910B7150910C71BC
:101FC60060910D7170910E7184239523A623B7231A
:101FD60080930B7190930C71A0930D71B0930E7159
:0E1FE600EE0FFF1FE050F049108211820895A7
:101FF4001F920F920FB60F9211242F933F934F937A
:102004005F936F937F938F939F93AF93BF93EF935C
:10201400FF9382E080930D06E0911171F0911271AB
:10202400309709F00995FF91EF91BF91AF919F917E
:102034008F917F916F915F914F913F912F910F906D
:082044000FBE0F901F901895CC
:10204C001F920F920FB60F9211242F933F934F9321
:10205C005F936F937F938F939F93AF93BF93EF9304
:10206C00FF9381E080930D06E0910F71F091107158
:10207C00309709F00995FF91EF91BF91AF919F9126
:10208C008F917F916F915F914F913F912F910F9015
:08209C000FBE0F901F90189574
:1020A4001F920F920FB60F9211242F933F934F93C9
:1020B4005F936F937F938F939F93AF93BF93EF93AC
:1020C400FF93E0915371F0915471309709F00995A1
:1020D40080E180930B0AFF91EF91BF91AF919F91A3
:1020E4008F917F916F915F914F913F912F910F90BD
:0820F4000FBE0F901F9018951C
:1020FC001F920F920FB60F9211242F933F934F9371
:10210C005F936F937F938F939F93AF93BF93EF9353
:10211C00FF93E0915171F0915271309709F009954C
:10212C0080E280930B0AFF91EF91BF91AF919F9149
:10213C008F917F916F915F914F913F912F910F9064
:08214C000FBE0F901F901895C3
:102154001F920F920FB60F9211242F933F934F9318
:102164005F936F937F938F939F93AF93BF93EF93FB
:10217400FF93E0914F71F0915071309709F00995F8
:1021840080E480930B0AFF91EF91BF91AF919F91EF
:102194008F917F916F915F914F913F912F910F900C
:0821A4000FBE0F901F9018956B
:1021AC001F920F920FB60F9211242F933F934F93C0
:1021BC005F936F937F938F939F93AF93BF93EF93A3
:1021CC00FF93E0914D71F0914E71309709F00995A4
:1021DC0081E080930B0AFF91EF91BF91AF919F919A
:1021EC008F917F916F915F914F913F912F910F90B4
:0821FC000FBE0F901F90189513
:102204001F920F920FB60F9211242F933F934F9367
:102214005F936F937F938F939F93AF93BF93EF934A
:10222400FF93E0915571F0915671309709F009953B
:1022340081E080935301FF91EF91BF91AF919F9102
:102244008F917F916F915F914F913F912F910F905B
:082254000FBE0F901F901895BA
:10225C001F93CF93DF9300D0CDB7DEB78983E1E432
:10226C00F9E080818160808310E81093050462E0BE
:10227C0070E0CE0101960E944412109306048981ED
:10228C0090E0982F88272A81820F911D0F900F9034
:08229C00DF91CF911F9108951D
:1022A400282F8334F8F481E090E0A0E0B0E004C08B
:1022B400880F991FAA1FBB1F2A95D2F740910B7153
:1022C40050910C7160910D7170910E71842B952B4E
:1022D400A62BB72B80930B7190930C71A0930D7167
:0622E400B0930E71089595
:1022EA00E0E4F1E081818111FDCFE0E4F1E087E0F3
:1022FA0090E084879587108611868FEF9FEF8287FB
:10230A0093871782128281E5808381898111FDCFAB
:10231A00E0E4F1E081E0828B81E6808B80E0089541
:10232A0041E050E060E070E004C0440F551F661FB2
:10233A00771F8A95D2F780910B7190910C71A091B9
:10234A000D71B0910E71482359236A237B2381E0D2
:0C235A00452B462B472B09F480E008952A
:10236600E0E0FAE010A611A612A613A614A615A67A
:1023760010A211A211821282138214821582168271
:1023860017821686118681E0828713862FE637E14B
:0A23960026A337A31786808308955D
:1023A0000F931F93CF9310927C71E1E4F9E0808149
:1023B0008C7F808305E414E0C1E0F801C08362E013
:1023C00070E08DE691E70E945712C0934604F80131
:0A23D000C083CF911F910F91089573
:1023DA00E0E0F6E085E08183128213821482168699
:1023EA00138681E0848784E0808780E481878AE09D
:1023FA0085838FEF97E0848B958B128A138A81E10C
:06240A00808380E00895CC
:1024100090917471992381F0909175719F3710F0AC
:1024200010927571E091757191E09E0F90937571A6
:0A243000F0E0EE57FF4880830895A6
:10243A008FEF9FEF80931C0B90931D0BE0E0FBE066
:10244A001286138687E1818310861482158216828A
:08245A00118681E080830895E2
:10246200E0E0F9E01082128280E18487168683EC34
:10247200818712861586138681EA93E18093137110
:062482009093147108950F
:10248800DC016115710571F0680F791FE0E4F9E06E
:102498008C91848393819923ECF784818D936A17B7
:0624A8007B07B1F7089567
:1024AE006115710571F0DC01680F791FE0E4F9E048
:1024BE009D91948393819923ECF78481A617B70796
:0424CE00B9F70895BD
:1024D200E0E1FBE08FEF9FEF8487958712861386FA
:1024E20087E181831086148215821682118681E02B
:0424F2008083089546
:1024F60020917971422F50E021E030E002C0220F96
:10250600331F8A95E2F72423352381E0232B09F430
:0425160080E00895C4
:10251A00E0E0F6E0808781E082870E947F138823CB
:10252A00E1F3E0E0F6E08089918921E025870895CA
:10253A000E94940F0E9481090E94ED110E94751158
:0E254A000E940B130E9437130E94BA120895CC
:1025580040E068ED80E191E00E948313E0E1F1E062
:0C256800128287E08383789480E008955D
:1025740044E068ED80E590E00E94831340E068ED5C
:0C25840081E590E00E94831380E0089540
:10259000E0E1FBE090819E7F90839FEF94878587A9
:0C25A0001286138680818160808308957C
:1025AC0021E030E002C0220F331F8A95E2F720951C
:0C25BC0080917971282320937971089593
:1025C80080916D7190916E7181709D7B8064809314
:0C25D8006D7190936E710E94D0110895F7
:1025E40021E030E002C0220F331F8A95E2F7809188
:0A25F4007971282B20937971089566
:1025FE00E0E0FBE090819E7F90839FEF948785873C
:08260E00808181608083089542
:10261600E0E4F9E080E8818381E38083128210920E
:062626007071138208959B
:10262C000E9431120E94B3110E941D120E94691265
:06263C000E94AC1208959B
:102642009C01E0E4F1E0918191FDFDCF20934801EE
:06265200309349010895D8
:10265800EC010E94C5130E94C413CE010E94C61348
:06266800CE010E94A31345
:10266E00E0EAF0E0148282E88083128280E008952E
:0E267E00009721F080931371909314710895CA
:0E268C0090917F71981710F480937F710895DC
:0E269A0090917F71981302C010927F71089585
:0C26A800E0E0F6E0808781E08287089582
:0C26B40081E090917D71911180E008950B
:0C26C000EE0FFF1F0590F491E02D09942F
:0A26CC008091100690911106089508
:0A26D60080930F7190931071089526
:0A26E00080934D7190934E710895A0
:0A26EA008093557190935671089586
:0A26F400809148019091490108957A
:0826FE0080910D068170089522
:08270600FC0164BF408308954B
:08270E0081E080930B0A08959D
:0827160081E080937C710895BD
:08271E0084E080937D710895B1
:0627260080930C0B0895E6
:06272C0080910D0B0895E1
:0627320080931C0B0895CA
:0627380080911D0B0895C5
:04273E000C940000F7
:0427420080E0089596
:042746000E94B2013A
:02274A000895F0
:02274C000895EE
:02274E000895EC
:022750000895EA
:022752000895E8
:022754000895E6
:022756000895E4
:022758000895E2
:02275A000895E0
:02275C000895DE
:02275E000895DC
:022760000895DA
:022762000895D8
:022764000895D6
:022766000895D4
:022768000895D2
:02276A000895D0
:02276C000895CE
:02276E000895CC
:022770000895CA
:022772000895C8
:022774000895C6
:022776000895C4
:022778000895C2
:02277A000895C0
:02277C000895BE
:02277E000895BC
:022780000895BA
:022782000895B8
:022784000895B6
:022786000895B4
:022788000895B2
:02278A000895B0
:02278C000895AE
:10278E00427261696E626F78332E312062657461B8
:10279E00202D2020526F626F636F6E2028632920D8
:1027AE0057696C6C204D756E6E732E2031393A312F
:1027BE00323A3234204D6179202032203230323399
:1027CE0000000000000000000000000000000000FB
:1027DE0000000000000000000000000000000000EB
:1027EE0000000000000000000000000000000000DB
:0F27FE00000000000000000000000000000000CC
:04280D0010000000B7
:02281100C313EF
:02281300C213EE
:02281500C113ED
:02281700C013EC
:02281900931119
:02281B00931117
:02281D00931115
:02281F00931113
:02282100931111
:0228230093110F
:0228250093110D
:0228270093110B
:012829000F9F
:01282A0002AB
:01282B0004A8
:02000004008278
:090000000000000000C000000037
:00000001FF
